:100000000C9476010C949E010C949E010C949E011C
:100010000C949E010C949E010C949E010C949E01E4
:100020000C949E010C949E010C941E0E0C94900E48
:100030000C949E010C949E010C949E010C949E01C4
:100040000C949E010C949E010C949E010C949E01B4
:100050000C949E010C949E010C949E010C9421051D
:100060000C949E010C948A030C9464030C949E01DE
:100070000C949E010C949E010C949E010C949E0184
:100080000C949E010C949E010C949E010C949E0174
:100090000C949E010C949E010C949E010C949E0164
:1000A0000C949E010C949E010C949E01E703EA03BC
:1000B000D903DD03E1030B040B040B04EE03F2038D
:1000C000F603FC0300040B040604000000002400F7
:1000D00027002A002D003000000000002500280025
:1000E0002B002E0031000000000200090F00000369
:1000F0000401000C000000000000000000000000EF
:10010000000000000072756E2D6272696467650AF6
:10011000000A000A00070605040100080A0B0C0D7E
:1001200009000000002300260029002C002F0004F5
:10013000040404040304050202020204030202028E
:100140000206060606060604040202020404040867
:1001500002011040804010204080408008020401CD
:1001600080402010020110801020404020080B0029
:10017000020202010009040000010202000005243D
:1001800000100105240101010424020605240600D3
:10019000010705810310004009040100020A000064
:1001A000000705020240000007058302400000042A
:1001B00003090441726475696E6F204C4C43004121
:1001C000726475696E6F2059756E0012010002002D
:1001D000000040412341800001010203011201009F
:1001E00002EF0201404123418000010102030100AE
:1001F000407A10F35A00A0724E18090010A5D4E8F6
:100200000000E87648170000E40B54020000CA9A88
:100210003B000000E1F505000080969800000040DA
:10022000420F000000A0860100000010270000001F
:1002300000E803000000006400000000000A000065
:100240000000000100000000002C76D888DC674F19
:100250000823DFC1DFAE59E1B1B796E5E3E453C649
:100260003AE651997696E8E6C28426EB898C9B6241
:10027000ED407C6FFCEFBC9C9F40F2BAA56FA5F4EB
:1002800090055A2AF75C936B6CF9676DC11BFCE013
:10029000E40D47FEF520E6B500D0ED902E03009466
:1002A0003577050080841E080000204E0A000000FB
:1002B000C80C333333330F986E12831141EF8D2105
:1002C00014893BE65516CFFEE6DB18D1844B381B6C
:1002D000F77C1D901DA4BBE424203284725E228131
:1002E00000C9F124ECA1E53D27004D1711241FBEE4
:1002F000CFEFDAE0DEBFCDBF12E0A0E0B1E0E0EE8C
:10030000FCE302C005900D92AE3CB107D9F724E0A2
:10031000AEECB2E001C01D92A631B207E1F711E0E8
:10032000C6E7D1E004C02197FE010E94C617C53779
:10033000D107C9F70E9410110C946E1E0C94000096
:10034000FC01918D828D981761F0828DDF01A80FDD
:10035000B11D5D968C91928D9F5F9F73928F90E0FF
:1003600008958FEF9FEF0895FC01918D828D98176E
:1003700031F0828DE80FF11D858D90E008958FEFAB
:100380009FEF0895FC01918D228D892F90E0805C74
:100390009F4F821B91098F7399270895FC01848DCB
:1003A000DF01A80FB11DA35ABF4F2C91848D90E09F
:1003B00001968F739927848FA689B7892C93A0897A
:1003C000B1898C9180648C93938D848D981306C031
:1003D0000288F389E02D80818F7D80830895EF92DC
:1003E000FF920F931F93CF93DF93EC0181E0888FEF
:1003F0009B8D8C8D981305C0E889F989808185FDD6
:1004000024C0F62E0B8D10E00F5F1F4F0F731127C6
:10041000E02E8C8DE8120CC00FB607FCFACFE889ED
:10042000F989808185FFF5CFCE010E94CE01F1CF01
:100430008B8DFE01E80FF11DE35AFF4FF0820B8F09
:10044000EA89FB898081806207C0EE89FF89608329
:10045000E889F98980818064808381E090E0DF9180
:10046000CF911F910F91FF90EF900895CF93DF935D
:10047000EC01888D8823C9F0EA89FB89808185FD9C
:1004800005C0A889B9898C9186FD0FC00FB607FCFD
:10049000F5CF808185FFF2CFA889B9898C9185FF3E
:1004A000EDCFCE010E94CE01E7CFDF91CF9108952D
:1004B00080E090E0892B29F00E94A40881110C941F
:1004C00000000895CF93DF931F92CDB7DEB7698305
:1004D000DC01ED91FC910280F381E02D41E050E0E0
:1004E000BE016F5F7F4F09950F90DF91CF91089507
:1004F00083E08093E9008091F200882319F08AE379
:100500008093E8000895FC018485958597FD0BC0D4
:100510009FB7F89482E08093E9008091F2009FBF3A
:1005200090E0019608959FB7F89482E08093E900E7
:100530008091F2009FBF90E008953FB7F8948091BA
:10054000CF029091D002A091D102B091D20226B5F3
:10055000A89B05C02F3F19F00196A11DB11D3FBFFB
:10056000BA2FA92F982F8827820F911DA11DB11D89
:10057000BC01CD0142E0660F771F881F991F4A9585
:10058000D1F7089508950895CF93DF931F92CDB7C3
:10059000DEB76983DC01ED91FC910280F381E02DEF
:1005A00041E050E0BE016F5F7F4F09950F90DF91F2
:1005B000CF910895CF93DF931F92CDB7DEB7FC01A3
:1005C0008485958597FD05C02FEF3FEF35872487FC
:1005D0000BC0CE0101960E94E70B019719F48981A7
:1005E00090E002C08FEF9FEF0F90DF91CF910895C1
:1005F0000F931F93CF93DF931F92CDB7DEB78C017C
:10060000FC018485958597FF0EC0CE0101960E945E
:10061000E70B019719F4298130E002C02FEF3FEF7B
:10062000F80135872487F801848595850F90DF913F
:10063000CF911F910F9108950E94301AAF92BF92EF
:10064000CF92DF92EF92FF920F931F93CF93DF939E
:1006500000D01F92CDB7DEB7FC01E85AFF4F2081D2
:100660002F3F11F15A019B0147E6498331964081A2
:100670004A833997CC24C394D12CCE0103967C01B4
:10068000850142E050E0BE016F5F7F4F8081918124
:100690000E944A098B81882329F090E091958195E9
:1006A000910904C0C50102C08FEF9FEF0F900F901A
:1006B0000F90DF91CF911F910F91FF90EF90DF90FE
:1006C000CF90BF90AF9008951F920F920FB60F92E8
:1006D00011242F933F934F935F936F937F938F9347
:1006E0009F93AF93BF93EF93FF9383E493E00E94B4
:1006F000CE01FF91EF91BF91AF919F918F917F912B
:100700006F915F914F913F912F910F900FBE0F907E
:100710001F9018951F920F920FB60F9211242F93CE
:100720008F939F93EF93FF93E0915303F0915403C2
:100730008081E0915903F0915A0382FD12C09081AB
:1007400080915C038F5F8F7320915D03821751F05E
:10075000E0915C03F0E0ED5BFC4F958F80935C03D0
:1007600001C08081FF91EF919F918F912F910F9008
:100770000FBE0F901F901895362F90E0FC01EA51A4
:10078000FF4F4491FC01E25BFE4F2491FC01E15DCF
:10079000FE4F8491882309F451C04423E1F150E0D5
:1007A000FA013197EF30F105B0F5EA5AFF4F0C949A
:1007B000C617909180009F7707C0909180009F7D21
:1007C00003C090918000977F9093800024C094B5DF
:1007D0009F7702C094B59F7D94BD1DC090919000FD
:1007E0009F7707C0909190009F7D03C090919000EB
:1007F000977F909390000FC09091C0009F7703C0A7
:100800009091C0009F7D9093C00005C09091C20060
:10081000977F9093C200E82FF0E0EE0FFF1FE852A1
:10082000FF4FA591B4918FB7F894EC91311103C0AB
:1008300020952E2301C02E2B2C938FBF0895CF938C
:10084000DF9390E0FC01E25BFE4F2491FC01E15D4F
:10085000FE4F8491882361F190E0880F991FFC017D
:10086000E653FF4FC591D491FC01E852FF4FA5918B
:10087000B491611109C09FB7F894888120958223B3
:100880008883EC912E230BC0623061F49FB7F894FB
:100890003881822F809583238883EC912E2B2C9393
:1008A0009FBF06C08FB7F894E8812E2B28838FBF97
:1008B000DF91CF9108958F929F92AF92BF92CF9286
:1008C000DF92EF92FF926B017C010E949D024B012F
:1008D0005C01C114D104E104F104F1F00E949D0215
:1008E000DC01CB0188199909AA09BB09883E93400C
:1008F000A105B10570F321E0C21AD108E108F108A1
:1009000088EE880E83E0981EA11CB11CC114D1048E
:10091000E104F10419F7DDCFFF90EF90DF90CF9065
:10092000BF90AF909F908F9008958F929F92AF92BB
:10093000BF92CF92DF92EF92FF920F931F93CF93CC
:10094000DF935C016B018A0180910C01882309F41B
:100950005EC08091EC02882309F459C080910B0499
:1009600080FF05C08091E00082608093E000E80194
:100970008AEFF82E93E0E92E2FE3822E3AE3932EAE
:10098000209709F43DC08FB7F894E092E900909168
:10099000E80095FF06C09091F200282D291B922FA8
:1009A00001C090E08FBF91110AC0FA94FF2079F145
:1009B00061E070E080E090E00E945B04E1CF292FCD
:1009C00030E0C217D3070CF49C2F8FB7F894E09255
:1009D000E9002091E80025FF11C0292F30E0C21B5B
:1009E000D30BF601915020F041914093F100FACFE2
:1009F000C20ED31E9091E80095FF13C08FBFC0CFE9
:100A00005D9884E680930C041016110644F081E092
:100A100090E0F5019383828380E090E005C0C801F7
:100A200003C09092E800EACFDF91CF911F910F9120
:100A3000FF90EF90DF90CF90BF90AF909F908F90FE
:100A400008951F920F920FB60F9211242F933F9388
:100A50008F939F93AF93BF938091ED029091EE029D
:100A6000A091EF02B091F0023091CE0223E0230F6B
:100A70002D3720F40196A11DB11D05C026E8230FD6
:100A80000296A11DB11D2093CE028093ED0290939A
:100A9000EE02A093EF02B093F0028091CF0290910A
:100AA000D002A091D102B091D2020196A11DB11D38
:100AB0008093CF029093D002A093D102B093D20240
:100AC000BF91AF919F918F913F912F910F900FBE4A
:100AD0000F901F9018950F931F93CF93DF93EC0106
:100AE0008B016EE871E08F8598890E94660CB801D1
:100AF0008F859889DF91CF911F910F910C94750C80
:100B0000CF93DF93EC018D819E81DC01ED91FC910F
:100B10000480F581E02D09951816190654F48D818D
:100B20009E81DC01ED91FC910680F781E02D099515
:100B3000EACFDF91CF9108958F929F92AF92BF92AB
:100B4000CF92DF92EF92FF92CF93DF93EC018FB7BA
:100B5000F8948090ED029090EE02A090EF02B09099
:100B6000F0028FBF6B01E12CF12C8D819E81DC01A5
:100B7000ED91FC910680F781E02D099597FF16C055
:100B80002FB7F8948091ED029091EE02A091EF02C0
:100B9000B091F0022FBF88199909AA09BB098C15D9
:100BA0009D05AE05BF0508F38FEF9FEFDF91CF9155
:100BB000FF90EF90DF90CF90BF90AF909F908F907D
:100BC0000895FC01238134812627022E2295207F5F
:100BD0002025032E322F22952F70022626953227AC
:100BE0002327220F220F220F2025348323830895E9
:100BF000CF92DF92EF92FF920F931F9368017901DA
:100C000000E010E020E030E00E944A091F910F91BF
:100C1000FF90EF90DF90CF9008950F931F93CF93A5
:100C2000DF9300D01F92CDB7DEB729E42983FC0102
:100C300026852A836B8300E010E020E030E043E06B
:100C400050E0BE016F5F7F4F848595850E94F80557
:100C500081E090E00F900F900F90DF91CF911F9166
:100C60000F910895EF92FF920F931F93CF93DF930D
:100C700000D0CDB7DEB77C01FC018189882389F0E3
:100C800087E7898386858A8300E010E020E030E0F2
:100C900042E050E0BE016F5F7F4F848595850E94E2
:100CA000F805F701118A0F900F90DF91CF911F91F6
:100CB0000F91FF90EF900895AF92BF92CF92DF9285
:100CC000EF92FF920F931F93CF93DF9300D000D04A
:100CD000CDB7DEB75C0182E58B83D5011F96ED9120
:100CE000FC915097048115812081318142E0C42E0E
:100CF000D12CFE0131967F0141E050E0BE016D5FD5
:100D00007F4F1C968D919C911D970E944A098A8164
:100D1000D5011E968C931E971F960D911C9150978E
:100D20000115110531F0C8010E94ED0CC8010E94A7
:100D3000CE18F501108A17868981811102C081E0E1
:100D4000818B32E7F32EF982D5011E968C911E9786
:100D50008A8301E010E09E012D5F3F4F42E050E0AA
:100D6000BE016F5F7F4F1C968D919C911D970E94D5
:100D7000F8058B81813039F464E670E080E090E022
:100D80000E945B04E0CF87E58B83F50186858C8329
:100D900002E010E09E012F5F3F4F42E050E0BE01B5
:100DA0006D5F7F4F848595850E94F805898190E06D
:100DB000982F88272A81820F911D0F900F900F90F6
:100DC0000F90DF91CF911F910F91FF90EF90DF90E7
:100DD000CF90BF90AF900895EF92FF920F931F9323
:100DE000CF93DF9300D01F92CDB7DEB7FC012289ED
:100DF000211118C07C01138A8FE4898380E48B83DE
:100E000086858A839F012C5E3F4F00E410E043E01B
:100E100050E0BE016F5F7F4F848595850E94F80585
:100E2000F701828B0F900F900F90DF91CF911F9160
:100E30000F91FF90EF900895CF93DF93EC010E9404
:100E4000EC068A89882331F08B89C80FD11D8C89E3
:100E500090E002C08FEF9FEFDF91CF910895CF9385
:100E6000DF93EC010E94EC068A89882359F08150B7
:100E70008A8B8B8991E0980F9B8BC80FD11D8C8931
:100E800090E002C08FEF9FEFDF91CF910895CF9355
:100E9000DF93EC010E94EC068A8990E0DF91CF910C
:100EA0000895EF92FF920F931F93CF93DF9300D09B
:100EB0001F92CDB7DEB7FC012485211128C07C012B
:100EC000158687E489838FE38B83E75AFF4F808100
:100ED0008A839701205F3F4F399700E410E043E099
:100EE00050E0BE016F5F7F4F808191810E94F805C5
:100EF0009C01215031092E3F3F4F18F0F701148615
:100F000006C0F70195859F5F9587815084870F9074
:100F10000F900F90DF91CF911F910F91FF90EF9065
:100F20000895CF93DF93EC010E9451078C8590E0E8
:100F3000DF91CF910895CF93DF93EC010E94510789
:100F40008C85882331F08D85C80FD11D888990E06C
:100F500002C08FEF9FEFDF91CF910895CF93DF9382
:100F6000EC010E9451078C85882359F081508C87B1
:100F70008D8591E0980F9D87C80FD11D888990E0DD
:100F800002C08FEF9FEFDF91CF910895AF92BF9294
:100F9000CF92DF92EF92FF920F931F93CF93DF9345
:100FA000CDB7DEB7C156D1090FB6F894DEBF0FBE7C
:100FB000CDBF5C011C821B8288EE93E0A0E0B0E014
:100FC0008D839E83AF83B88787E191E09A8389837D
:100FD00080EE93E063969FAF8EAF63976CEC72E008
:100FE000CE018D5A9F4F0E94090E82E06A968FAF04
:100FF0006A9760E971E0CE018D5A9F4F0E94D60C2E
:1010000082E76C968FAF6C9787E76D968FAF6D9781
:1010100081E66E968FAF6E9786E4A1968FAFA1970B
:101020006A968FAD6A97EBE5F0E0EC0FFD1FE80FD5
:10103000F11D8081A2968FAFA29781E090E0988BFE
:101040008F8769960EAD1FAD699765962EAD3FAD42
:10105000659782E0C82ED12CCE01825A9F4F7C0129
:1010600042E050E0BE01605A7F4F63968EAD9FAD67
:1010700063970E944A096F968FAD6F97882329F076
:101080008FEF6A968FAF6A9707C0A0968FADA09733
:101090006B968FAF6B971D866A968FAD6A978F3F61
:1010A00089F0B501CE0101960E94CD10B50181EF06
:1010B00092E00E94CD1068EE73E080E090E00E9424
:1010C0005B0404C086EA91E00E94D40A87E191E0C3
:1010D0009A8389836A968FAD6A978F3FF1F086E68F
:1010E0006C968FAF6C976B968FAD6B976D968FAF3D
:1010F0006D9701E010E09E01225A3F4F42E050E020
:10110000BE01655A7F4F63968EAD9FAD63970E9477
:10111000F8058FEF6A968FAF6A97CE018D5A9F4F71
:101120000E94ED0CCF59DF4F0FB6F894DEBF0FBE13
:10113000CDBFDF91CF911F910F91FF90EF90DF9086
:10114000CF90BF90AF90089583E493E00E94C201D6
:1011500021E0892B09F420E0822F089561157105A3
:1011600079F0FB0101900020E9F73197AF01461BB0
:10117000570BDC01ED91FC910280F381E02D099485
:1011800080E090E008958F929F92AF92BF92CF92AD
:10119000DF92EF92FF92CF93DF93A091F203882327
:1011A00011F03A2F01C030E08091F30390E0880FF6
:1011B000991F8F5D9E4FC090F803D090F903E09087
:1011C000FA03F090FB0340E050E0BA01FC01C59146
:1011D000D49128812A2323130FC04A015B012FEFEA
:1011E000821A920AA20AB20A4C155D056E057F05A5
:1011F00038F4B501A401EACF342F252FCB0104C068
:1012000030E020E080E090E0632F722FDF91CF91FB
:10121000FF90EF90DF90CF90BF90AF909F908F9016
:101220000895CF93DF93EC0188819981009711F0A5
:101230000E94CE18198218821D821C821B821A827B
:10124000DF91CF9108950F931F93CF93DF93EC011C
:1012500088819981009729F02A813B8126173707D9
:1012600088F48B016F5F7F4F0E946619009761F0D1
:10127000998388831B830A832C813D81232B11F45E
:10128000FC01108281E001C080E0DF91CF911F91CD
:101290000F9108952F923F924F925F926F927F929B
:1012A0008F929F92AF92BF92CF92DF92EF92FF9276
:1012B0000F931F93CF93DF93CDB7DEB72B970FB666
:1012C000F894DEBF0FBECDBF9B878A875B011901F3
:1012D000FD82EC823A01600E711E872C7B82912C7C
:1012E00044244A94542C9B01240F351F3F832E83A2
:1012F0009101200F311F39872887EA85FB8580857A
:10130000981608F036C1AA85BB8514965C924E9259
:10131000139715968D919C911697DC01ED91FC9198
:101320000190F081E02D6FEF09956FEF8A859B8525
:101330000E94E105EA85FB8585819681DC01ED91BE
:10134000FC910190F081E02DAA85BB856C910995F7
:10135000EA85FB856081CF010E94E105AA85BB85F6
:1013600015968D919C911697DC01ED91FC91019061
:10137000F081E02D682D09956B818A859B850E94FF
:10138000E105EA85FB8585819681DC01ED91FC9183
:101390000190F081E02D662D0995662D8A859B854B
:1013A0000E94E10575012E813F81E216F306B1F03E
:1013B000EA85FB85858196818701DC01ED91FC91B1
:1013C0000190F081E02DD7016D917D010995F80123
:1013D00060818A859B850E94E105E5CF7101AA8520
:1013E000BB8515968D919C91169728853985E216B7
:1013F000F30691F08701DC01ED91FC910190F08101
:10140000E02DD7016D917D010995F80160818A85F4
:101410009B850E94E105E3CFDC01ED91FC91AA855B
:10142000BB8514966C910190F081E02D0995EA85B9
:10143000FB8585819681DC01ED91FC910190F08125
:10144000E02DAA85BB8513966C91099564E670E042
:101450008A859B850E949C058F3F910509F07DC080
:10146000EA85FB85548243826FEFCF010E94E1053C
:1014700065E070E08A859B850E949C05AA85BB85F6
:101480006C91262F30E08217930709F066C0CD01DA
:101490000E94E1056AE070E08A859B850E949C05B8
:1014A0007C0197FD5AC0682F8A859B850E94E105C3
:1014B0006AE070E08A859B850E949C058C0197FDFF
:1014C0004CC0682F8A859B850E94E105EA821982BB
:1014D000E981FA810E0F1F1FE12CF12C65E070E00D
:1014E0008A859B85E016F106A9F0EC14FD0491F0C5
:1014F0000E949C0597FD0AC0EC81FD81EE0DFF1D49
:101500008083682F8A859B850E94E105FFEFEF1A93
:10151000FF0AE4CF0E949C057C0197FD1EC065E098
:1015200070E08A859B850E949C0597FD16C0FE2C65
:10153000EE248E0D9F1DAA85BB8513962D913C919F
:1015400014972817390749F48C918F5F8C93C80141
:10155000C016D10680F4C6010EC0939464E670E014
:1015600080E090E00E945B048A859B850E94800554
:10157000C4CE8FEF9FEF2B960FB6F894DEBF0FBE51
:10158000CDBFDF91CF911F910F91FF90EF90DF9032
:10159000CF90BF90AF909F908F907F906F905F9013
:1015A0004F903F902F900895CF93DF93BC0181EF30
:1015B00092E00E94AE08EC016AEC72E081EF92E0EA
:1015C0000E94AE088C0F9D1FDF91CF910895CF929E
:1015D000DF92EF92FF920F931F93CF93DF93CDB7DC
:1015E000DEB7C054D1400FB6F894DEBF0FBECDBFFA
:1015F0002FB7F8948091ED029091EE02A091EF0246
:10160000B091F0022FBF4091F4035091F503609127
:10161000F6037091F7038C019D01041B150B260B3B
:10162000370BB901A801403D57406105710518F419
:101630008091FC03BCC08093F4039093F503A093C6
:10164000F603B093F7031092EF031092EE0310929B
:10165000ED031092EC031092EB0361E08091F00334
:101660000E94BC036AEF70E080E090E00E945B049F
:1016700061E08091F0030E941F0460E08091F0031C
:101680000E94BC0364E170E080E090E00E945B0493
:10169000F89461E08091F0030E94BC038BE990E034
:1016A0000197F1F762E08091F0030E941F0483E24A
:1016B00090E00197F1F780E00E94C308672B682B48
:1016C000692B21F41092FC0378943EC081E00E94C3
:1016D000C308672B682B692BA9F38E010F5F1F4F7F
:1016E0006E012FEBC21A2EEFD20A780180E00E9421
:1016F000C308F701608371838283938381E00E9432
:10170000C308F7016483758386839783F8E0EF0E3F
:10171000F11CEC14FD0451F7789420E030E0F8015E
:101720004081518162817381C480D580E680F780D9
:10173000411551056105710529F0C114D104E10479
:10174000F10421F41092FC0380E031C0F90183E040
:10175000F595E7958A95E1F7E551FC4F8081880F73
:101760004C155D056E057F0508F4816080832F5F51
:101770003F4F085F1F4F2832310589F62091EF0354
:1017800030E04091EB038091EC0390E0840F911DD9
:101790004091ED03840F911D4091EE03840F911D44
:1017A00099272817390771F681E08093FC03C05C04
:1017B000DE4F0FB6F894DEBF0FBECDBFDF91CF91E5
:1017C0001F910F91FF90EF90DF90CF900895FC0153
:1017D0008091EC02811103C08FEF9FEF08959FB7B6
:1017E000F89482E08093E9002091F20030E0121634
:1017F000130614F421E030E02115310559F0289842
:1018000084E68093EB028091F10080838091F20066
:10181000882319F09FBFC90108958BE68093E800E3
:10182000F9CF8091010481110DC082E08093FD0306
:1018300084E08093FE03109200041092FF0381E085
:10184000809301048DEF93E00895EF92FF920F9340
:101850001F93CF93DF93FC012481358161157105BE
:1018600011F480E019C041155105A9F07B01EC018C
:101870008A01020F131FB8010E942309882389F3EC
:10188000288139818C819D81B701820F931F0E942D
:101890003E1A1D830C8381E0DF91CF911F910F9140
:1018A000FF90EF900895CF93DF93EC01FB0144810B
:1018B0005581608171810E94250C811103C0CE0188
:1018C0000E941109CE01DF91CF9108956115710534
:1018D00051F0FB0101900020E9F73197AF01461B61
:1018E000570B0C94250C80E00895FB014481558131
:1018F000608171810C94250C0F931F93CF93DF931C
:101900008C01EB01FC01808191810097B1F068812D
:1019100079816115710579F0428153812C813D8176
:101920004217530740F00E943E1A8C819D81F801B6
:101930009583848313C00E94CE1888819981F80111
:10194000918380838A819B81938382838C819D8113
:1019500095838483198218821B821A821D821C82BD
:10196000DF91CF911F910F910895EF92FF920F9306
:101970001F93CF93DF93EC017B018A01BA010E9490
:101980002309811104C0CE010E94110907C01D83E3
:101990000C83B701888199810E943E1ACE01DF91A4
:1019A000CF911F910F91FF90EF900895CF93DF9308
:1019B000EC016115710559F0FB0101900020E9F778
:1019C0003197AF01461B570B0E94B50C02C00E9415
:1019D0001109CE01DF91CF910895FC0180819181A1
:1019E0000C94CE1808954091100450911104209148
:1019F0000E0430910F0442175307B4F49091E8009D
:101A00009570E1F39091E80092FD19C08093F10088
:101A1000809110049091110401968F739927892B5E
:101A200019F48EEF8093E8008091100490911104D6
:101A30000196909311048093100481E0089580E052
:101A40000895CF92DF92EF92FF920F931F93CF935F
:101A5000DF931F92CDB7DEB7182F062FE42E862F07
:101A6000880F8E5F99830E94F30C83E00E94F30C31
:101A7000F12EC12E9981D92E8C2D8F19801798F4B3
:101A8000F601E7FE02C0849101C080810E94F30C40
:101A9000182F80E00E94F30C8123FFEFCF1ADF0A9A
:101AA0008111EACF01C081E00F90DF91CF911F91AA
:101AB0000F91FF90EF90DF90CF900895DF92EF921B
:101AC000FF920F931F93CF93DF93D82E8A017B0150
:101AD000E40EF51EEB01CE15DF0571F0D7FE03C055
:101AE000FE01849101C088810E94F30C219681112E
:101AF000F2CF8FEF9FEF01C0C801DF91CF911F910F
:101B00000F91FF90EF90DF900895615030F0209199
:101B1000F100FC0120830196F8CF289884E6809399
:101B2000EB020895CF92DF92EF92FF920F931F93F3
:101B3000CF93DF936C017A018B01C0E0D0E0CE152A
:101B4000DF0589F0D8016D918D01D601ED91FC91F1
:101B50000190F081E02DC6010995892B11F47E01D9
:101B600002C02196ECCFC701DF91CF911F910F9159
:101B7000FF90EF90DF90CF9008950F931F93CF9336
:101B8000DF931F92CDB7DEB782E0898342E450E055
:101B90006DE671E080E80E945E0D0E94110CDC0190
:101BA00012960D911C9113970115110569F0D8013A
:101BB000ED91FC910280F381E02DBE016F5F7F4FBC
:101BC000C801099597FF07C089810F90DF91CF91D8
:101BD0001F910F910895F80100851185E5CFFB0154
:101BE000DC0111961C921E9213961C921E92129763
:101BF00015961C921E9214978617970749F06081DC
:101C000071816115710521F0448155810C94B50CE9
:101C10000895FC01118210821382128215821482AF
:101C20006115710551F0FB0101900020E9F7319732
:101C3000AF01461B570B0C94B50C08951F920F92E1
:101C40000FB60F9211248F939F938091E100909192
:101C5000E100937F9093E10083FF0FC01092E900B1
:101C600091E09093EB001092EC0092E39093ED00E2
:101C70001092EC0298E09093F00082FF20C093E075
:101C80009093E9009091F200992319F09AE39093D0
:101C9000E80090910C04992339F090910C04915034
:101CA00090930C04992389F19091EB02992339F0D8
:101CB0009091EB0291509093EB02992341F184FFB4
:101CC00010C08091E2008E7E81608093E20080915E
:101CD000E1008F7E8093E10080910B048E7E806115
:101CE00011C080FF16C08091E2008E7E80618093DB
:101CF000E2008091E1008E7E8093E10080910B04F0
:101D00008E7E816080930B0404C05D9ACDCF289AAB
:101D1000D6CF9F918F910F900FBE0F901F90189567
:101D20001F920F920FB60F921124CF92DF92EF9273
:101D3000FF920F931F932F933F934F935F936F9354
:101D40007F938F939F93AF93BF93EF93FF93CF9323
:101D5000DF93CDB7DEB76C97DEBFCDBF1092E90041
:101D60008091E80083FFFAC168E0CE0145960E94A9
:101D7000850D82EF8093E8008D8987FF05C09091E3
:101D8000E80090FFFCCF03C09EEF9093E800982FEF
:101D9000907609F0C6C09E892F89188D91110CC0CC
:101DA000803829F480910A048093F10002C01092D7
:101DB000F1001092F10047C1422F50E0512B9130B9
:101DC00051F4811140C14130510509F03CC180916D
:101DD0000A048D7F0BC0933061F4811134C141300E
:101DE000510509F030C180910A04826080930A0491
:101DF0002AC1953041F48091E80080FFFCCF206833
:101E00002093E30020C1963009F05FC0EB8CFC8C7E
:101E10001092E9001092110410921004123091F502
:101E200010920F0410920E040E94BD0D99E0BE01A5
:101E30006F5F7F4FDB01E92F1D92EA95E9F79983E8
:101E40001A8391E09E8390EA98879AEF9987209170
:101E5000100430911104275F3F4F3C832B838D8307
:101E60001092E9001092110410921004F0920F04E5
:101E7000E0920E0449E050E080E00E945E0D0E9476
:101E8000BD0DE1C0F0920F04E0920E040E94110C0F
:101E9000DC011296ED90FC901397E114F10409F423
:101EA000C0C0D701ED91FC910480F581E02DBE0109
:101EB0006B5E7F4FC7010995009719F00CF0C3C006
:101EC000C6C0F701E084F184E8CF973009F4BFC0C1
:101ED000983021F481E08093F100B5C0993009F089
:101EE000B2C0837009F0B3C0E8E8F1E081E021E01E
:101EF00036E39081992361F08093E9002093EB0011
:101F000091919093EC003093ED008F5F873089F7CB
:101F10008EE78093EA001092EA008F898093EC02AA
:101F200092C08B8D9C8D1092E9001092110410923A
:101F3000100490930F0480930E04898D811156C074
:101F40008E899D89913A59F4813209F080C047E029
:101F500050E065E071E080E00E945E0D74C0913257
:101F600009F075C0833289F4888D90E0982F882716
:101F70002F89822BA0E0B0E08093010190930201B1
:101F8000A0930301B09304015EC0803269F4809194
:101F9000E80082FFFCCF67E085E091E00E94850DBC
:101FA0008BEF8093E80006C0823209F04CC08F8925
:101FB00080930C0180910904882319F0EEEFFAE078
:101FC00002C0E0E0F8E08091050190910601A09147
:101FD0000701B0910801803B9440A105B10509F0CB
:101FE00088C080910C0180FFA0C083C00E94110CAA
:101FF000DC0112960D911C9113970115110539F111
:10200000D801ED91FC910190F081E02DBE016B5E55
:102010007F4FC8010995811116C0F801008511850F
:10202000ECCF1130C1F0133091F48F89882309F47B
:1020300055C08230E9F440E86BE08FEB91E00E94FC
:10204000210D882321F08EEF8093E80087C081E284
:102050008093EB0083C08B8D9C8D089711F41093B7
:102060000D0480910D04811136C06BEC71E038C015
:10207000813029F440E86BE083EB91E0E0CF8330DE
:1020800031F70E94110CDC011296ED90FC90139731
:102090008E010F5F1F4F6801E114F10479F0D70141
:1020A000ED91FC910680F781E02DB801C7010995FB
:1020B000080F111DF701E084F184EECFD8011C92C6
:1020C000F60101900020E9F73197BF016C197D09F5
:1020D00040E0C601B4CF6DED71E002C06FEA71E07F
:1020E0006115710509F4B3CFFB01449150E080E81C
:1020F00033CF0FB6F894A8958091600088618093E3
:102100006000109260000FBEA895EE3F2AE0F20733
:1021100039F08091FE0A9091FF0A9183808393CFDA
:102120001092FF0A1092FE0A8ECFEE3F8AE0F80767
:1021300031F0808191819093FF0A8093FE0A87E7B6
:1021400097E7918380839BE088E10FB6F894A89588
:10215000809360000FBE9093600075CF6C960FB6B1
:10216000F894DEBF0FBECDBFDF91CF91FF91EF910D
:10217000BF91AF919F918F917F916F915F914F919F
:102180003F912F911F910F91FF90EF90DF90CF9093
:102190000F900FBE0F901F9018950F931F93CF9322
:1021A000DF93EC01E881F981DB0114964D915C919C
:1021B00015976D917C910280F381E02D09958C013A
:1021C0006AEC72E0CE010E94AE08800F911FDF9191
:1021D000CF911F910F910895EF92FF920F931F934C
:1021E000CF93DF938C017B01C0E0D0E0F701EC0FCF
:1021F000FD1F6491662361F0D801ED91FC9101907F
:10220000F081E02DC8010995892B11F02196EECFC0
:10221000CE01DF91CF911F910F91FF90EF90089524
:10222000CF93DF93CDB7DEB7CF5AD1090FB6F8946D
:10223000DEBF0FBECDBF789484B5826084BD84B507
:10224000816084BD85B5826085BD85B5816085BDB1
:1022500080916E00816080936E0010928100809169
:1022600081008260809381008091810081608093F1
:102270008100809180008160809380008091910036
:1022800082608093910080919100816080939100A1
:10229000809190008160809390008091C100846063
:1022A0008093C1008091C10082608093C1008091C1
:1022B000C10081608093C1008091C30081608093E0
:1022C000C3008091C00082608093C0008091C200F2
:1022D00081608093C20080917A00846080937A004C
:1022E00080917A00826080937A0080917A00816088
:1022F00080937A0080917A00806880937A001092AF
:10230000EC0210920A0410920B048091D7008160B5
:102310008093D70080EA8093D80089B5806189BD19
:1023200089B5826089BD09B400FEFDCF61E070E02F
:1023300080E090E00E945B048091D8008F7C8061F7
:102340008093D8008091E000807F8093E0008091AE
:10235000E1008E7E8093E1008DE08093E200559A4B
:10236000209AEEEFFFE7859194918B3F9C4D19F4F5
:1023700081E080930904E091E903F091EA03A089E8
:10238000B18982E08C93A485B5851C92A685B7851A
:1023900087E08C93108EA489B58986E08C93A289FE
:1023A000B3898C9180618C93A289B3898C91886068
:1023B0008C93A289B3898C9180688C930288F3896D
:1023C000E02D80818F7D80838091E7038111D1C0D2
:1023D00081E08093E70380EE93E00E94800568EE41
:1023E00073E080E090E00E945B048091E5039091AF
:1023F000E603DC01ED91FC910480F581E02D099567
:102400001816190644F355E0B52EAA24A39462E3E6
:10241000962EE3E2F1E0DE01A45ABF4F8B2D01902E
:102420000D928A95E1F7A092E80300E010E020E029
:1024300030E045E050E0BE01645A7F4F80EE93E00B
:102440000E94F8058091E5039091E603DC01ED918F
:10245000FC910190F081E02D63E009956AEF70E056
:1024600080E090E00E945B0463E171E08091E5030D
:102470009091E6030E94EC106AEF70E080E090E03B
:102480000E945B0461E171E08091E5039091E603B5
:102490000E94EC1064EF71E080E090E00E945B0429
:1024A00065E071E08091E5039091E6030E94EC10F5
:1024B00064EF71E080E090E00E945B0480EE93E0C6
:1024C0000E948005E8E2F1E0DE0111968B2D01907B
:1024D0000D928A95E1F79092E80304E010E09E01E6
:1024E0002E593F4F45E050E0BE016F5F7F4F80EEB9
:1024F00093E00E94F8058F3FBFEF9B0739F468EE29
:1025000073E080E090E00E945B0483CFA3962FAD40
:10251000A3972111FFCF049719F5A4962FADA49787
:1025200030E02053310984E6829FA001839F500D43
:102530001124A5962FADA59730E0205331096AE00C
:10254000629FC001639F900D1124840F951FA69672
:102550002FADA69730E020533109820F931F02C0A0
:1025600084E690E09093E2038093E10382E380931A
:10257000E8038FEF9FEF9093FE028093FD0262E0ED
:102580008091F0030E941F0480E398EFAFEFBFEF4C
:102590008093F4039093F503A093F603B093F703AD
:1025A00080EC91E00E94D40A63E072E0CE01845A8C
:1025B0009F4F0E94090EBE01645A7F4FCE010196C3
:1025C0000E94EF0DCE0101960E94C607CE01019632
:1025D0000E94ED0CCE01845A9F4F0E94ED0C80E9C1
:1025E00091E00E94D40A83E08093000148EE842E9B
:1025F00043E0942EA12CB12C6CEC72E0CE018655F8
:102600009F4F0E94090E1C821B828D829E82AF8288
:10261000B88683E391E09A83898380EE93E09E8776
:102620008D871A8A1B8A1C8A61E372E0CE01845A64
:102630009F4F0E94090ECE0101960E94320686E04D
:1026400090E00E9439188C01BE01645A7F4F0E94AD
:10265000EF0D198B088BCE01845A9F4F0E94ED0C11
:1026600066E372E0CE01845A9F4F0E94090EBE01BC
:10267000645A7F4FCE0101960E946B05CE01845AA9
:102680009F4F0E94ED0CCE0101960E945C06CE0188
:1026900001960E94EC068B898823B9F0CE01019641
:1026A0000E942F078A3099F36D968FAF6D976E96C3
:1026B0001FAE6E9741E050E0BE01645A7F4FCE01DD
:1026C00086559F4F0E94250CE2CF6CEC72E0CE0144
:1026D000845A9F4F0E94090EC255DF4F088119810D
:1026E000CE5AD0400D30110530F10D30110511F0EA
:1026F0000EE010E0C655DF4FE881F981CA5AD0409C
:10270000E00FF11F70801082C655DF4F688179811C
:10271000CA5AD040645F7F4FCE01845A9F4F0E94B7
:10272000D60CC655DF4F88819981CA5AD040FC012A
:10273000E00FF11F70826E968EAD9FAD6E97009781
:1027400019F00E94651A03C060E070E0CB0170933D
:10275000E2026093E102CE01845A9F4F0E94ED0C89
:102760006CEC72E0CE01845A9F4F0E94090EC25554
:10277000DF4F08811981CE5AD0400730110530F162
:102780000730110511F008E010E0C655DF4FE88171
:10279000F981CA5AD040E00FF11F70801082C655EF
:1027A000DF4F68817981CA5AD0406A5F7F4FCE017E
:1027B000845A9F4F0E94D60CC655DF4F888199815D
:1027C000CA5AD040FC01E00FF11F70826E968EADA8
:1027D0009FAD6E97009719F00E94651A03C060E0E4
:1027E00070E0CB017093D6026093D502CE01845A7B
:1027F0009F4F0E94ED0C83E391E09A838983CE0181
:1028000001960E9432062091E3028091E1029091AC
:10281000E202211107C09093E0028093DF0221E0E1
:102820002093E3022091D70221110BC02091D50201
:102830003091D6023093D4022093D30221E020932A
:10284000D7022091DF023091E0028217930709F04E
:102850001CC38733910514F0C79701C00596909368
:10286000E0028093DF026CEC72E0CE018C559F4F4A
:102870000E94090E6CEC72E0CE0182569F4F0E94BE
:10288000090E6CEC72E0CE0188569F4F0E94090E33
:102890006DE372E0CE0186559F4F0E94660C0E9448
:1028A000E70A8823A1F18091F1038B3041F178F19F
:1028B0008551823060F56091EB0370E080E090E03C
:1028C0000E943C1D20E030E040E853E40E94791D66
:1028D0002B013C018091EC03682F70E080E090E0D8
:1028E0000E943E1D9B01AC01C301B2010E94CD17A5
:1028F0002DEC3CEC4CEC5DE30E94791D0CC060912A
:10290000EB0370E080E090E00E943C1D04C060E0BA
:1029100070E080EC9FE76E961FAE1EAE6E97A0969D
:102920001FAE1EAEA097A2961FAE1EAEA2978E013E
:102930000F5F1F4F22E044E00E94451ABC01CE0108
:10294000845A9F4F0E94D60CBE01645A7F4FCE011D
:102950008C559F4F0E947C0CCE01845A9F4F0E9441
:10296000ED0C0E94E70A8823D1F18091F1038B30AE
:1029700029F0A8F18551823048F031C06091ED0313
:1029800070E080E090E00E943C1D2DC01091ED03AE
:10299000612F6F7770E080E090E00E943E1D20E0A4
:1029A00030E040E853E40E94791D2B013C01809106
:1029B000EE03682F70E080E090E00E943E1D9B01D6
:1029C000AC01C301B2010E94CD172DEC3CEC4CECE4
:1029D0005DE30E94791D17FF06C0905804C060E0B7
:1029E00070E080EC9FE76E961FAE1EAE6E97A096CD
:1029F0001FAE1EAEA097A2961FAE1EAEA2978E016E
:102A00000F5F1F4F22E044E00E94451ABC01CE0137
:102A1000845A9F4F0E94D60CBE01645A7F4FCE014C
:102A200082569F4F0E947C0CCE01845A9F4F0E9479
:102A3000ED0CE5E1F1E0E49120917B00E3FBEE2475
:102A4000E0F8F12CC70135E0880F991F3A95E1F7BE
:102A5000922F9F7D892B80937B00E77080910001EE
:102A600020E4829FC0011124E82BE0937C00809138
:102A70007A00806480937A0080917A0086FDFCCF92
:102A800080917800209179006E961FAE1EAE6E97F1
:102A9000A0961FAE1EAEA097A2961FAE1EAEA29726
:102AA00090E04AE0BE016F5F7F4F922B0E948C1A2C
:102AB000BE016F5F7F4FCE01845A9F4F0E94D60C9C
:102AC000BE01645A7F4FCE0188569F4F0E947C0CF6
:102AD000CE01845A9F4F0E94ED0CBE0168567F4F75
:102AE000CE018A579F4F0E94EF0DBE016C557F4F5C
:102AF000CE0184579F4F0E94EF0DBE0162567F4F5B
:102B0000CE018E569F4F0E94EF0D1C821B828D823C
:102B10009E82AF82B88680EE93E09E878D871A8A68
:102B20001B8A1C8A83E491E09A83898366961FAE90
:102B300066976CEC72E0CE018A5A9F4F0E94090E94
:102B400061E472E0CE0180589F4F0E94090E63E657
:102B500072E0CE0186589F4F0E94090E68E772E02E
:102B6000CE018C589F4F0E94090E61E872E0CE01A1
:102B700082599F4F0E94090E6AE872E0CE0188597F
:102B80009F4F0E94090EBE0160587F4FCE01845AAC
:102B90009F4F0E94EF0DBE0166587F4FCE01845AB1
:102BA0009F4F0E94530CBE016C587F4F0E94530CE4
:102BB000BE016E567F4F0E94530CBE0162597F4F7B
:102BC0000E94530CBE0164577F4F0E94530CBE01FC
:102BD00068597F4F0E94530CBE016A577F4F0E9475
:102BE000530CBC01CE018E599F4F0E94EF0DCE01B8
:102BF000845A9F4F0E94ED0C63E972E0CE01845A23
:102C00009F4F0E94090ECE0101960E94320686E077
:102C100090E00E9439188C01BE01645A7F4F0E94D7
:102C2000EF0D198B088BCE01845A9F4F0E94ED0C3B
:102C300066968FAD6697882399F068E972E0CE01B9
:102C4000845A9F4F0E94090EBE01645A7F4FCE01E5
:102C500001960E946B05CE01845A9F4F0E94ED0C95
:102C60006C968EAD9FAD6C97892BD1F06BE972E0BD
:102C7000CE01845A9F4F0E94090EBE01645A7F4FB5
:102C8000CE0101960E946B05CE01845A9F4F0E948F
:102C9000ED0CBE016A5A7F4FCE0101960E946B0572
:102CA000BE016E597F4FCE0101960E946B05CE0189
:102CB00001960E945C06CE0101960E94EC068B896B
:102CC000882381F0CE0101960E942F07E091F10246
:102CD000F091F2020190F081E02D682F81EF92E0F7
:102CE0000995E9CFCE018E599F4F0E94ED0CCE0180
:102CF00088599F4F0E94ED0CCE0182599F4F0E9430
:102D0000ED0CCE018C589F4F0E94ED0CCE018658E1
:102D10009F4F0E94ED0CCE0180589F4F0E94ED0CFA
:102D200083E491E09A838983CE018A5A9F4F0E945F
:102D3000ED0C83E391E09A838983CE0101960E9492
:102D40003206CE018E569F4F0E94ED0CCE01845765
:102D50009F4F0E94ED0CCE018A579F4F0E94ED0CB1
:102D6000BE016C557F4FCE01845A9F4F0E94EF0DDC
:102D7000BE0162567F4FCE018E599F4F0E94EF0DCC
:102D80006CEC72E0CE0101960E94090E64EA72E0DA
:102D9000CE0101960E94660CBE01645A7F4FCE019F
:102DA00001960E94750C6FEA72E0CE0101960E94B6
:102DB000660CBE016E597F4FCE0101960E94750CC4
:102DC000BE016F5F7F4FCE0186559F4F0E94750CED
:102DD000CE0101960E94ED0CCE018E599F4F0E94AC
:102DE000ED0CCE01845A9F4F0E94ED0CBE01685637
:102DF0007F4FCE018E599F4F0E94EF0D6EEB72E018
:102E0000CE0101960E94090EBE016E597F4FCE0180
:102E100001960E94530CBC01CE01845A9F4F0E9420
:102E2000EF0DCE0101960E94ED0CBE01645A7F4F5A
:102E3000CE0186559F4F0E94750CCE01845A9F4F3C
:102E40000E94ED0CCE018E599F4F0E94ED0CBE01E9
:102E500066557F4FCE0101960E94EF0DCE0101967F
:102E60000E94C607CE0101960E94ED0CCE01885645
:102E70009F4F0E94ED0CCE0182569F4F0E94ED0C99
:102E8000CE018C559F4F0E94ED0CCE0186559F4F71
:102E90000E94ED0C0E945802AFCBE3E4F3E01382F2
:102EA000128248EE53E060E070E04483558366830D
:102EB000778383E591E0918380838DEC90E0958723
:102EC00084878CEC90E09787868788EC90E0918BE4
:102ED000808B89EC90E0938B828B8AEC90E0958BD1
:102EE000848B8EEC90E0978B868B118E128E138ED6
:102EF000148EA1EFB2E013961C921E9212971496B4
:102F00004D935D936D937C93179783E691E01196B3
:102F10009C938E938FEF9FEF1D969C938E931C979F
:102F2000A0EEB3E0B0934203A09341031C92169627
:102F3000FC93EE93159717961C92179718961C9270
:102F400018971A96FC93EE931997ABEEB3E088E0CE
:102F500015968C93159786E116968C931697E6E551
:102F6000F1E0E4911796EC931797E7E3F1E0E49131
:102F70001896EC93189740E85EE360E070E01D96C9
:102F80004D935D936D937C9350970895EE0FFF1FC3
:102F90000590F491E02D09945058BB27AA270E9470
:102FA000E4170C94FD1D0E94EF1D38F00E94F61DE1
:102FB00020F039F49F3F19F426F40C94EC1D0EF424
:102FC000E095E7FB0C94E61DE92F0E940E1E58F3D6
:102FD000BA17620773078407950720F079F4A6F5FE
:102FE0000C94301E0EF4E0950B2EBA2FA02D0B0181
:102FF000B90190010C01CA01A0011124FF27591B3E
:1030000099F0593F50F4503E68F11A16F040A22F43
:10301000232F342F4427585FF3CF469537952795B4
:10302000A795F0405395C9F77EF41F16BA0B620BB3
:10303000730B840BBAF09150A1F0FF0FBB1F661FFA
:10304000771F881FC2F70EC0BA0F621F731F841F3D
:1030500048F4879577956795B795F7959E3F08F063
:10306000B0CF9395880F08F09927EE0F9795879525
:103070000895CF93DF938230910510F482E090E0C1
:10308000E0911404F091150420E030E0C0E0D0E0BD
:10309000309711F14081518148175907C0F0481706
:1030A000590761F482819381209719F09B838A8369
:1030B0002BC0909315048093140426C0211531056C
:1030C00019F04217530718F49A01BE01DF01EF010E
:1030D0000280F381E02DDCCF2115310509F1281B99
:1030E000390B2430310590F412968D919C911397F1
:1030F0006115710521F0FB019383828304C09093D5
:10310000150480931404FD01329644C0FD01E20FC2
:10311000F31F81939193225031092D933C933AC030
:103120002091120430911304232B41F420910F01BC
:1031300030911001309313042093120420910D015B
:1031400030910E012115310541F42DB73EB7409164
:10315000110150911201241B350BE0911204F091E2
:103160001304E217F307A0F42E1B3F0B28173907AF
:1031700078F0AC014E5F5F4F2417350748F04E0FD3
:103180005F1F50931304409312048193919302C0E4
:10319000E0E0F0E0CF01DF91CF9108950F931F930E
:1031A000CF93DF93009709F48CC0FC013297138210
:1031B000128200911404109115040115110581F477
:1031C00020813181820F931F2091120430911304CA
:1031D0002817390779F5F0931304E093120471C0AE
:1031E000D80140E050E0AE17BF0750F412962D9181
:1031F0003C911397AD012115310509F1D901F3CFA8
:103200009D01DA013383228360817181860F971FCC
:103210008217930769F4EC0128813981260F371F43
:103220002E5F3F4F318320838A819B8193838283EA
:10323000452B29F4F0931504E093140442C013962F
:10324000FC93EE931297ED01499159919E01240F41
:10325000351FE217F30771F480819181840F951F68
:10326000029611969C938E938281938113969C93E0
:103270008E931297E0E0F0E0D80112968D919C9128
:103280001397009719F0F8018C01F6CF8D919C915E
:1032900098012E5F3F4F820F931F209112043091AF
:1032A00013042817390769F4309729F4109215048C
:1032B0001092140402C0138212821093130400931C
:1032C0001204DF91CF911F910F910895A0E0B0E01B
:1032D000ECE6F9E10C943B1EEC01009721F4CB01E4
:1032E0000E943918B8C0FC01E60FF71F9C0122505C
:1032F0003109E217F30708F4ACC0D9010D911C9114
:10330000119706171707B0F00530110508F49FC094
:10331000C80104978617970708F499C0025011094D
:10332000061B170B019311936D937C93CF010E94A1
:10333000CE188DC05B01A01AB10A4C01800E911EFF
:10334000A0911404B091150440E050E0E12CF12C60
:10335000109709F44AC0A815B905D1F56D907C9075
:103360001197630182E0C80ED11CCA14DB0480F1FE
:10337000A3014A195B096A0182E0C80ED11C1296AA
:10338000BC9012971396AC91B5E0CB16D10440F0E7
:10339000B282A38351834083D9016D937C930AC089
:1033A0000E5F1F4FC301800F911FF901918380832E
:1033B000EB2DFA2FE114F10431F0D7011396FC93B1
:1033C000EE93129744C0F0931504E09314043FC0A9
:1033D0008D919C9111974817590708F4AC017D0114
:1033E00012960D90BC91A02DB3CF809112049091B4
:1033F000130488159905E1F446175707C8F480911E
:103400000D0190910E01009741F48DB79EB7409148
:10341000110150911201841B950BE817F907C8F4AC
:10342000F0931304E0931204F901718360830FC0D9
:10343000CB010E9439187C01009759F0A801BE0108
:103440000E94351ACE010E94CE18C70104C0CE01D9
:1034500002C080E090E0CDB7DEB7EEE00C94571EDE
:1034600081E090E0F8940C946E1EFB01DC0102C038
:1034700001900D9241505040D8F70895FB01DC01B6
:1034800001900D920020E1F70895EF920F931F93A2
:10349000CF93DF93E80147FD02C034E001C034E17F
:1034A000E42F440FFF0BF7FF03C0F195E195F109FD
:1034B000E32E022F2E2FAE010E94C61ACE01DF91FD
:1034C000CF911F910F91EF9008951F93FC019927C1
:1034D0008827BC01E89411911032E9F3193010F0FB
:1034E0001E30C8F31B3251F01D3249F4689406C0F7
:1034F0000E94971A610F711D811D911D119110532A
:103500001A30B0F33EF490958095709561957F4F99
:103510008F4F9F4F1F910895BB274A3031F4992355
:1035200022F4BDE2909581959F4F0C94AD1A592FCE
:10353000482F372F262F660F771F881F991F660F7A
:10354000771F881F991F620F731F841F951F660FB7
:10355000771F881F991F0895BB27FB015527AA27AE
:10356000880F991FAA1FA41710F0A41B8395505110
:10357000B9F7A05DAA3308F0A95DA193009779F788
:10358000B111B1931192CB010C942C1D4F925F920B
:103590006F927F929F92AF92BF92CF92DF92EF9203
:1035A000FF920F931F93CF93DF93CDB7DEB7299789
:1035B0000FB6F894DEBF0FBECDBF6A01122FB02E3A
:1035C0002BE3201720F0FF24F394F00E02C0BCE39D
:1035D000FB2E0F2D27E0AE014F5F5F4F0E94541C62
:1035E000AC018981982F9970913031F0E1FC06C0CF
:1035F000E0FE06C090E205C09DE203C09BE201C070
:1036000090E0EE2DE07183FF3CC0911102C083E099
:1036100001C084E0811718F4212F281B01C020E08D
:10362000E1110BC0F601822F30E2882319F03193AB
:103630008150FBCFC20ED11C20E0992329F0D60186
:103640009C93F60131966F01C6010396E2FE0AC013
:103650003EE4D6013C9341E411964C9311971296A7
:103660003C9306C03EE6F601308341E64183328357
:10367000FC01322F40E2332309F442C04193315020
:10368000FACF82FF44C0911102C083E001C084E000
:10369000811718F4212F281B01C020E0E1110BC075
:1036A000F601822F30E2882319F031938150FBCF4D
:1036B000C20ED11C20E0992329F0D6019C93F6017B
:1036C00031966F01C6010396E2FE0BC039E4D601C4
:1036D0003C933EE411963C93119736E412963C934A
:1036E00007C039E6F60130833EE6318336E63283A1
:1036F000FC01322F40E2332319F041933150FBCFCC
:10370000FC01E20FF11D10828EEF9FEFB7C0F1E0D8
:10371000911101C0F0E06F2F70E01416150624F42B
:103720009A012F5F3F4F02C021E030E0260F371F84
:10373000BB2029F06B2D70E06F5F7F4F02C060E00F
:1037400070E0260F371F612F70E0261737071CF433
:10375000121B212F01C020E03E2D387159F4D601F3
:10376000322F60E2332319F06D933150FBCFC20E3C
:10377000D11C20E0FF2331F0D6019C93B6016F5F8E
:103780007F4F6B01E1110BC0F601922F30E39923BB
:1037900019F031939150FBCFC20ED11C20E09F2D28
:1037A000940F3A81782F7071A72E84FF03C03133B4
:1037B00009F49150191624F4993018F098E001C0DA
:1037C00091E0E42F852F57FF02C0E0E080E06E2FEC
:1037D000782FE0E0F0E0AEE29A2E3A01691A710823
:1037E0002A01461A570A0B2D10E01195019511096F
:1037F0006F3F8FEF780729F4D6019C92C60101969E
:103800006C014617570784F0661677066CF47F0143
:10381000E40CF51CA1E0B0E0AC0FBD1FEA0EFB1EEE
:10382000D7011196BC9002C090E3B92E6150710986
:103830003196C60101967C016017710724F0D6010C
:10384000BC926C01D5CF6417750741F4363320F470
:10385000353321F4A11002C081E3B82EF601B08205
:10386000F701822F90E2882319F091938150FBCFCA
:10387000F701E20FF11D108280E090E029960FB66B
:10388000F894DEBF0FBECDBFDF91CF911F910F9196
:10389000FF90EF90DF90CF90BF90AF909F907F9080
:1038A0006F905F904F900895283008F027E03327FD
:1038B000DA01990F311D87FD916000966105710550
:1038C00039F432602E5F3D9330E32A95E1F7089595
:1038D0009F3F30F080387105610509F03C5F3C5F27
:1038E0003D93913008F08068911DDF93CF931F9333
:1038F0000F93FF92EF92192F987F9695E92F969547
:103900009695E90FFF27E75BFD4F99273327EE24B4
:10391000FF24A701E70105900894079428F4360FC7
:10392000E71EF81E491F511D660F771F881F991F3C
:103930000694A1F70590079428F4E70EF81E491F96
:10394000561FC11D770F881F991F661F0694A1F788
:103950000590079428F4F80E491F561FC71FD11D64
:10396000880F991F661F771F0694A1F7059007948B
:1039700020F4490F561FC71FD81F990F661F771FC6
:10398000881F0694A9F784911095177041F0D69579
:10399000C79557954795F794E7941A95C1F7EFEEB9
:1039A000F1E0689415901591359165919591059088
:1039B0007FE27395E118F10A430B560BC90BD0094E
:1039C000C0F7E10CF11E431F561FC91FD01D7EF426
:1039D000703311F48A95E6CFE894015030F0080F67
:1039E0000AF40027021708F4202F2395022F7A33B8
:1039F00028F079E37D932A95E9F710C07D932A9505
:103A000089F6069497956795379517951794E11859
:103A1000F10A430B560BC90BD00998F023957E9100
:103A200073957A3308F070E37C932013B8F77E9196
:103A300070617D9330F0839571E37D9370E32A95F7
:103A4000E1F71124EF90FF900F911F91CF91DF913B
:103A5000992787FD90950895DC01FC01672F7191EE
:103A60007723E1F7329704C07C916D937083629164
:103A7000AE17BF07C8F30895E89409C097FB3EF45A
:103A800090958095709561957F4F8F4F9F4F9923AB
:103A9000A9F0F92F96E9BB279395F6958795779529
:103AA0006795B795F111F8CFFAF4BB0F11F460FFE9
:103AB0001BC06F5F7F4F8F4F9F4F16C0882311F041
:103AC00096E911C0772321F09EE8872F762F05C055
:103AD000662371F096E8862F70E060E02AF09A95F0
:103AE000660F771F881FDAF7880F9695879597F9E5
:103AF00008950E948C1D0C94FD1D0E94EF1D38F04E
:103B00000E94F61D20F0952311F00C94E61D0C94F4
:103B1000EC1D11240C94311E0E940E1E70F3959F13
:103B2000C1F3950F50E0551F629FF001729FBB27B4
:103B3000F00DB11D639FAA27F00DB11DAA1F649F50
:103B40006627B00DA11D661F829F2227B00DA11D03
:103B5000621F739FB00DA11D621F839FA00D611D89
:103B6000221F749F3327A00D611D231F849F600DAA
:103B7000211D822F762F6A2F11249F5750409AF0D3
:103B8000F1F088234AF0EE0FFF1FBB1F661F771F5F
:103B9000881F91505040A9F79E3F510580F00C942A
:103BA000E61D0C94311E5F3FE4F3983ED4F38695F6
:103BB00077956795B795F795E7959F5FC1F7FE2BCA
:103BC000880F911D9695879597F9089597F99F67A6
:103BD00080E870E060E008959FEF80EC0895002495
:103BE0000A941616170618060906089500240A9462
:103BF00012161306140605060895092E0394000CE8
:103C000011F4882352F0BB0F40F4BF2B11F460FF76
:103C100004C06F5F7F4F8F4F9F4F089557FD90589F
:103C2000440F551F59F05F3F71F04795880F97FB80
:103C3000991F61F09F3F79F087950895121613063A
:103C40001406551FF2CF4695F1DF08C01616170669
:103C50001806991FF1CF869571056105089408959E
:103C6000E894BB2766277727CB0197F908952F9211
:103C70003F924F925F926F927F928F929F92AF92FC
:103C8000BF92CF92DF92EF92FF920F931F93CF9349
:103C9000DF93CDB7DEB7CA1BDB0B0FB6F894DEBFE0
:103CA0000FBECDBF09942A88398848885F846E8406
:103CB0007D848C849B84AA84B984C884DF80EE8050
:103CC000FD800C811B81AA81B981CE0FD11D0FB659
:103CD000F894DEBF0FBECDBFED010895F894FFCF7D
:103CE00001FFFFFFFF00E1000000000000000016E0
:103CF00004800000000000C4021E039107AE079B71
:103D000007C302585858585858583130309001005D
:103D10000000000D06920D47072F071C07C2020086
:103D20000000000D06920D47072F071C07C2020076
:103D3000000000EF01920DC201A001B401360200A3
:103D4000000000620295048302DA02F802780200A1
:103D50000000001C03920D1C031C031C031C030029
:103D60000000001C03920D00C18081000000FE00D5
:103D70002F6D6E742F736461312F446174616C6FA9
:103D8000672E747874006572726F72206F70656E42
:103D9000696E6720646174616C6F672E747874005B
:103DA00053797374656D2073746172740A506C6515
:103DB00061736520636865636B2057492D46492010
:103DC000706172616D657465727320616E642069E3
:103DD00066207465726D696E616C206F6E6C696EC1
:103DE00065210044617465092054696D65090948BD
:103DF000756D6964697479092020202054656D709F
:103E00007261747572650909555620696E6465782A
:103E10000064617465002B25442D255400203D204D
:103E200000687474703A2F2F6170692E7468696E1F
:103E300067737065616B2E636F6D2F75706461744D
:103E4000653F006B65793D4D313038524E365454E4
:103E50005653423051454200266669656C64313DD7
:103E600000266669656C64323D00266669656C648F
:103E7000333D006375726C002D6B002D2D686561FC
:103E80006465720048756D69646974793A20000947
:103E900054656D70657261747572653A20000955DC
:0E3EA0005620696E6465783A20000D0A000015
:00000001FF
